{"contracts/CoffeeTrack.sol":{"CoffeeTrack":{"abi":[{"anonymous":false,"inputs":[{"indexed":false,"internalType":"uint256","name":"batchId","type":"uint256"}],"name":"BatchCreated","type":"event"},{"inputs":[{"internalType":"uint256","name":"_batchId","type":"uint256"},{"internalType":"string","name":"_stage","type":"string"},{"internalType":"string","name":"_name","type":"string"},{"internalType":"string","name":"_location","type":"string"},{"internalType":"string","name":"_date","type":"string"},{"internalType":"string","name":"_sustainability","type":"string"},{"internalType":"string","name":"_beanType","type":"string"},{"internalType":"string","name":"_process","type":"string"},{"internalType":"string","name":"_roasting","type":"string"},{"internalType":"string","name":"_details","type":"string"}],"name":"addCoffeeStage","outputs":[],"stateMutability":"nonpayable","type":"function"},{"inputs":[],"name":"batchCount","outputs":[{"internalType":"uint256","name":"","type":"uint256"}],"stateMutability":"view","type":"function"},{"inputs":[{"internalType":"uint256","name":"","type":"uint256"},{"internalType":"uint256","name":"","type":"uint256"}],"name":"coffeeBatches","outputs":[{"internalType":"uint256","name":"index","type":"uint256"},{"internalType":"string","name":"stage","type":"string"},{"internalType":"string","name":"name","type":"string"},{"internalType":"string","name":"location","type":"string"},{"internalType":"string","name":"date","type":"string"},{"internalType":"string","name":"sustainability","type":"string"},{"internalType":"string","name":"beanType","type":"string"},{"internalType":"string","name":"process","type":"string"},{"internalType":"string","name":"roasting","type":"string"},{"internalType":"string","name":"details","type":"string"}],"stateMutability":"view","type":"function"},{"inputs":[],"name":"createBatch","outputs":[{"internalType":"uint256","name":"","type":"uint256"}],"stateMutability":"nonpayable","type":"function"},{"inputs":[{"internalType":"uint256","name":"_batchId","type":"uint256"}],"name":"getBatchStages","outputs":[{"components":[{"internalType":"uint256","name":"index","type":"uint256"},{"internalType":"string","name":"stage","type":"string"},{"internalType":"string","name":"name","type":"string"},{"internalType":"string","name":"location","type":"string"},{"internalType":"string","name":"date","type":"string"},{"internalType":"string","name":"sustainability","type":"string"},{"internalType":"string","name":"beanType","type":"string"},{"internalType":"string","name":"process","type":"string"},{"internalType":"string","name":"roasting","type":"string"},{"internalType":"string","name":"details","type":"string"}],"internalType":"struct CoffeeTrack.CoffeeStage[]","name":"","type":"tuple[]"}],"stateMutability":"view","type":"function"}],"evm":{"bytecode":{"linkReferences":{},"object":"60806040526000600155348015601457600080fd5b506113da806100246000396000f3fe608060405234801561001057600080fd5b50600436106100575760003560e01c806302c931191461005c57806306f1305614610071578063164f09081461008d5780635a80e31f146100b6578063b91297c8146100d6575b600080fd5b61006f61006a366004610df0565b6100de565b005b61007a60015481565b6040519081526020015b60405180910390f35b6100a061009b366004610f96565b610224565b6040516100849a99989796959493929190610ffe565b6100c96100c43660046110ca565b61075d565b60405161008491906110e3565b61007a610cf3565b60008a81526020818152604080832080548251610140810184528181528085018f81529381018e9052606081018d9052608081018c905260a081018b905260c081018a905260e081018990526101008101889052610120810187905285855260018083018455928652939094208351600a8602909101908155915183929182019061016990826112be565b506040820151600282019061017e90826112be565b506060820151600382019061019390826112be565b50608082015160048201906101a890826112be565b5060a082015160058201906101bd90826112be565b5060c082015160068201906101d290826112be565b5060e082015160078201906101e790826112be565b5061010082015160088201906101fd90826112be565b50610120820151600982019061021390826112be565b505050505050505050505050505050565b6000602052816000526040600020818154811061024057600080fd5b90600052602060002090600a02016000915091505080600001549080600101805461026a90611235565b80601f016020809104026020016040519081016040528092919081815260200182805461029690611235565b80156102e35780601f106102b8576101008083540402835291602001916102e3565b820191906000526020600020905b8154815290600101906020018083116102c657829003601f168201915b5050505050908060020180546102f890611235565b80601f016020809104026020016040519081016040528092919081815260200182805461032490611235565b80156103715780601f1061034657610100808354040283529160200191610371565b820191906000526020600020905b81548152906001019060200180831161035457829003601f168201915b50505050509080600301805461038690611235565b80601f01602080910402602001604051908101604052809291908181526020018280546103b290611235565b80156103ff5780601f106103d4576101008083540402835291602001916103ff565b820191906000526020600020905b8154815290600101906020018083116103e257829003601f168201915b50505050509080600401805461041490611235565b80601f016020809104026020016040519081016040528092919081815260200182805461044090611235565b801561048d5780601f106104625761010080835404028352916020019161048d565b820191906000526020600020905b81548152906001019060200180831161047057829003601f168201915b5050505050908060050180546104a290611235565b80601f01602080910402602001604051908101604052809291908181526020018280546104ce90611235565b801561051b5780601f106104f05761010080835404028352916020019161051b565b820191906000526020600020905b8154815290600101906020018083116104fe57829003601f168201915b50505050509080600601805461053090611235565b80601f016020809104026020016040519081016040528092919081815260200182805461055c90611235565b80156105a95780601f1061057e576101008083540402835291602001916105a9565b820191906000526020600020905b81548152906001019060200180831161058c57829003601f168201915b5050505050908060070180546105be90611235565b80601f01602080910402602001604051908101604052809291908181526020018280546105ea90611235565b80156106375780601f1061060c57610100808354040283529160200191610637565b820191906000526020600020905b81548152906001019060200180831161061a57829003601f168201915b50505050509080600801805461064c90611235565b80601f016020809104026020016040519081016040528092919081815260200182805461067890611235565b80156106c55780601f1061069a576101008083540402835291602001916106c5565b820191906000526020600020905b8154815290600101906020018083116106a857829003601f168201915b5050505050908060090180546106da90611235565b80601f016020809104026020016040519081016040528092919081815260200182805461070690611235565b80156107535780601f1061072857610100808354040283529160200191610753565b820191906000526020600020905b81548152906001019060200180831161073657829003601f168201915b505050505090508a565b600081815260208181526040808320805482518185028101850190935280835260609492939192909184015b82821015610ce857838290600052602060002090600a020160405180610140016040529081600082015481526020016001820180546107c790611235565b80601f01602080910402602001604051908101604052809291908181526020018280546107f390611235565b80156108405780601f1061081557610100808354040283529160200191610840565b820191906000526020600020905b81548152906001019060200180831161082357829003601f168201915b5050505050815260200160028201805461085990611235565b80601f016020809104026020016040519081016040528092919081815260200182805461088590611235565b80156108d25780601f106108a7576101008083540402835291602001916108d2565b820191906000526020600020905b8154815290600101906020018083116108b557829003601f168201915b505050505081526020016003820180546108eb90611235565b80601f016020809104026020016040519081016040528092919081815260200182805461091790611235565b80156109645780601f1061093957610100808354040283529160200191610964565b820191906000526020600020905b81548152906001019060200180831161094757829003601f168201915b5050505050815260200160048201805461097d90611235565b80601f01602080910402602001604051908101604052809291908181526020018280546109a990611235565b80156109f65780601f106109cb576101008083540402835291602001916109f6565b820191906000526020600020905b8154815290600101906020018083116109d957829003601f168201915b50505050508152602001600582018054610a0f90611235565b80601f0160208091040260200160405190810160405280929190818152602001828054610a3b90611235565b8015610a885780601f10610a5d57610100808354040283529160200191610a88565b820191906000526020600020905b815481529060010190602001808311610a6b57829003601f168201915b50505050508152602001600682018054610aa190611235565b80601f0160208091040260200160405190810160405280929190818152602001828054610acd90611235565b8015610b1a5780601f10610aef57610100808354040283529160200191610b1a565b820191906000526020600020905b815481529060010190602001808311610afd57829003601f168201915b50505050508152602001600782018054610b3390611235565b80601f0160208091040260200160405190810160405280929190818152602001828054610b5f90611235565b8015610bac5780601f10610b8157610100808354040283529160200191610bac565b820191906000526020600020905b815481529060010190602001808311610b8f57829003601f168201915b50505050508152602001600882018054610bc590611235565b80601f0160208091040260200160405190810160405280929190818152602001828054610bf190611235565b8015610c3e5780601f10610c1357610100808354040283529160200191610c3e565b820191906000526020600020905b815481529060010190602001808311610c2157829003601f168201915b50505050508152602001600982018054610c5790611235565b80601f0160208091040260200160405190810160405280929190818152602001828054610c8390611235565b8015610cd05780601f10610ca557610100808354040283529160200191610cd0565b820191906000526020600020905b815481529060010190602001808311610cb357829003601f168201915b50505050508152505081526020019060010190610789565b505050509050919050565b6001805460009182610d048361137d565b91905055507f2354c6982830f23074cbadd3a8326546827ca5be87b6cfe41e906c66e75cd965600154604051610d3c91815260200190565b60405180910390a15060015490565b634e487b7160e01b600052604160045260246000fd5b600082601f830112610d7257600080fd5b813567ffffffffffffffff811115610d8c57610d8c610d4b565b604051601f8201601f19908116603f0116810167ffffffffffffffff81118282101715610dbb57610dbb610d4b565b604052818152838201602001851015610dd357600080fd5b816020850160208301376000918101602001919091529392505050565b6000806000806000806000806000806101408b8d031215610e1057600080fd5b8a35995060208b013567ffffffffffffffff811115610e2e57600080fd5b610e3a8d828e01610d61565b99505060408b013567ffffffffffffffff811115610e5757600080fd5b610e638d828e01610d61565b98505060608b013567ffffffffffffffff811115610e8057600080fd5b610e8c8d828e01610d61565b97505060808b013567ffffffffffffffff811115610ea957600080fd5b610eb58d828e01610d61565b96505060a08b013567ffffffffffffffff811115610ed257600080fd5b610ede8d828e01610d61565b95505060c08b013567ffffffffffffffff811115610efb57600080fd5b610f078d828e01610d61565b94505060e08b013567ffffffffffffffff811115610f2457600080fd5b610f308d828e01610d61565b9350506101008b013567ffffffffffffffff811115610f4e57600080fd5b610f5a8d828e01610d61565b9250506101208b013567ffffffffffffffff811115610f7857600080fd5b610f848d828e01610d61565b9150509295989b9194979a5092959850565b60008060408385031215610fa957600080fd5b50508035926020909101359150565b6000815180845260005b81811015610fde57602081850181015186830182015201610fc2565b506000602082860101526020601f19601f83011685010191505092915050565b8a81526101406020820152600061101961014083018c610fb8565b828103604084015261102b818c610fb8565b9050828103606084015261103f818b610fb8565b90508281036080840152611053818a610fb8565b905082810360a08401526110678189610fb8565b905082810360c084015261107b8188610fb8565b905082810360e084015261108f8187610fb8565b90508281036101008401526110a48186610fb8565b90508281036101208401526110b98185610fb8565b9d9c50505050505050505050505050565b6000602082840312156110dc57600080fd5b5035919050565b6000602082016020835280845180835260408501915060408160051b86010192506020860160005b8281101561122957603f198786030184528151805186526020810151610140602088015261113d610140880182610fb8565b9050604082015187820360408901526111568282610fb8565b915050606082015187820360608901526111708282610fb8565b9150506080820151878203608089015261118a8282610fb8565b91505060a082015187820360a08901526111a48282610fb8565b91505060c082015187820360c08901526111be8282610fb8565b91505060e082015187820360e08901526111d88282610fb8565b9150506101008201518782036101008901526111f48282610fb8565b91505061012082015191508681036101208801526112128183610fb8565b96505050602093840193919091019060010161110b565b50929695505050505050565b600181811c9082168061124957607f821691505b60208210810361126957634e487b7160e01b600052602260045260246000fd5b50919050565b601f8211156112b957806000526020600020601f840160051c810160208510156112965750805b601f840160051c820191505b818110156112b657600081556001016112a2565b50505b505050565b815167ffffffffffffffff8111156112d8576112d8610d4b565b6112ec816112e68454611235565b8461126f565b6020601f82116001811461132057600083156113085750848201515b600019600385901b1c1916600184901b1784556112b6565b600084815260208120601f198516915b828110156113505787850151825560209485019460019092019101611330565b508482101561136e5786840151600019600387901b60f8161c191681555b50505050600190811b01905550565b60006001820161139d57634e487b7160e01b600052601160045260246000fd5b506001019056fea264697066735822122057da9deae30f8c52fc73db2c654feac33a81a107f8d67f4773ba11caf06b0bb464736f6c634300081c0033","opcodes":"PUSH1 0x80 PUSH1 0x40 MSTORE PUSH1 0x0 PUSH1 0x1 SSTORE CALLVALUE DUP1 ISZERO PUSH1 0x14 JUMPI PUSH1 0x0 DUP1 REVERT JUMPDEST POP PUSH2 0x13DA DUP1 PUSH2 0x24 PUSH1 0x0 CODECOPY PUSH1 0x0 RETURN INVALID PUSH1 0x80 PUSH1 0x40 MSTORE CALLVALUE DUP1 ISZERO PUSH2 0x10 JUMPI PUSH1 0x0 DUP1 REVERT JUMPDEST POP PUSH1 0x4 CALLDATASIZE LT PUSH2 0x57 JUMPI PUSH1 0x0 CALLDATALOAD PUSH1 0xE0 SHR DUP1 PUSH4 0x2C93119 EQ PUSH2 0x5C JUMPI DUP1 PUSH4 0x6F13056 EQ PUSH2 0x71 JUMPI DUP1 PUSH4 0x164F0908 EQ PUSH2 0x8D JUMPI DUP1 PUSH4 0x5A80E31F EQ PUSH2 0xB6 JUMPI DUP1 PUSH4 0xB91297C8 EQ PUSH2 0xD6 JUMPI JUMPDEST PUSH1 0x0 DUP1 REVERT JUMPDEST PUSH2 0x6F PUSH2 0x6A CALLDATASIZE PUSH1 0x4 PUSH2 0xDF0 JUMP JUMPDEST PUSH2 0xDE JUMP JUMPDEST STOP JUMPDEST PUSH2 0x7A PUSH1 0x1 SLOAD DUP2 JUMP JUMPDEST PUSH1 0x40 MLOAD SWAP1 DUP2 MSTORE PUSH1 0x20 ADD JUMPDEST PUSH1 0x40 MLOAD DUP1 SWAP2 SUB SWAP1 RETURN JUMPDEST PUSH2 0xA0 PUSH2 0x9B CALLDATASIZE PUSH1 0x4 PUSH2 0xF96 JUMP JUMPDEST PUSH2 0x224 JUMP JUMPDEST PUSH1 0x40 MLOAD PUSH2 0x84 SWAP11 SWAP10 SWAP9 SWAP8 SWAP7 SWAP6 SWAP5 SWAP4 SWAP3 SWAP2 SWAP1 PUSH2 0xFFE JUMP JUMPDEST PUSH2 0xC9 PUSH2 0xC4 CALLDATASIZE PUSH1 0x4 PUSH2 0x10CA JUMP JUMPDEST PUSH2 0x75D JUMP JUMPDEST PUSH1 0x40 MLOAD PUSH2 0x84 SWAP2 SWAP1 PUSH2 0x10E3 JUMP JUMPDEST PUSH2 0x7A PUSH2 0xCF3 JUMP JUMPDEST PUSH1 0x0 DUP11 DUP2 MSTORE PUSH1 0x20 DUP2 DUP2 MSTORE PUSH1 0x40 DUP1 DUP4 KECCAK256 DUP1 SLOAD DUP3 MLOAD PUSH2 0x140 DUP2 ADD DUP5 MSTORE DUP2 DUP2 MSTORE DUP1 DUP6 ADD DUP16 DUP2 MSTORE SWAP4 DUP2 ADD DUP15 SWAP1 MSTORE PUSH1 0x60 DUP2 ADD DUP14 SWAP1 MSTORE PUSH1 0x80 DUP2 ADD DUP13 SWAP1 MSTORE PUSH1 0xA0 DUP2 ADD DUP12 SWAP1 MSTORE PUSH1 0xC0 DUP2 ADD DUP11 SWAP1 MSTORE PUSH1 0xE0 DUP2 ADD DUP10 SWAP1 MSTORE PUSH2 0x100 DUP2 ADD DUP9 SWAP1 MSTORE PUSH2 0x120 DUP2 ADD DUP8 SWAP1 MSTORE DUP6 DUP6 MSTORE PUSH1 0x1 DUP1 DUP4 ADD DUP5 SSTORE SWAP3 DUP7 MSTORE SWAP4 SWAP1 SWAP5 KECCAK256 DUP4 MLOAD PUSH1 0xA DUP7 MUL SWAP1 SWAP2 ADD SWAP1 DUP2 SSTORE SWAP2 MLOAD DUP4 SWAP3 SWAP2 DUP3 ADD SWAP1 PUSH2 0x169 SWAP1 DUP3 PUSH2 0x12BE JUMP JUMPDEST POP PUSH1 0x40 DUP3 ADD MLOAD PUSH1 0x2 DUP3 ADD SWAP1 PUSH2 0x17E SWAP1 DUP3 PUSH2 0x12BE JUMP JUMPDEST POP PUSH1 0x60 DUP3 ADD MLOAD PUSH1 0x3 DUP3 ADD SWAP1 PUSH2 0x193 SWAP1 DUP3 PUSH2 0x12BE JUMP JUMPDEST POP PUSH1 0x80 DUP3 ADD MLOAD PUSH1 0x4 DUP3 ADD SWAP1 PUSH2 0x1A8 SWAP1 DUP3 PUSH2 0x12BE JUMP JUMPDEST POP PUSH1 0xA0 DUP3 ADD MLOAD PUSH1 0x5 DUP3 ADD SWAP1 PUSH2 0x1BD SWAP1 DUP3 PUSH2 0x12BE JUMP JUMPDEST POP PUSH1 0xC0 DUP3 ADD MLOAD PUSH1 0x6 DUP3 ADD SWAP1 PUSH2 0x1D2 SWAP1 DUP3 PUSH2 0x12BE JUMP JUMPDEST POP PUSH1 0xE0 DUP3 ADD MLOAD PUSH1 0x7 DUP3 ADD SWAP1 PUSH2 0x1E7 SWAP1 DUP3 PUSH2 0x12BE JUMP JUMPDEST POP PUSH2 0x100 DUP3 ADD MLOAD PUSH1 0x8 DUP3 ADD SWAP1 PUSH2 0x1FD SWAP1 DUP3 PUSH2 0x12BE JUMP JUMPDEST POP PUSH2 0x120 DUP3 ADD MLOAD PUSH1 0x9 DUP3 ADD SWAP1 PUSH2 0x213 SWAP1 DUP3 PUSH2 0x12BE JUMP JUMPDEST POP POP POP POP POP POP POP POP POP POP POP POP POP POP POP JUMP JUMPDEST PUSH1 0x0 PUSH1 0x20 MSTORE DUP2 PUSH1 0x0 MSTORE PUSH1 0x40 PUSH1 0x0 KECCAK256 DUP2 DUP2 SLOAD DUP2 LT PUSH2 0x240 JUMPI PUSH1 0x0 DUP1 REVERT JUMPDEST SWAP1 PUSH1 0x0 MSTORE PUSH1 0x20 PUSH1 0x0 KECCAK256 SWAP1 PUSH1 0xA MUL ADD PUSH1 0x0 SWAP2 POP SWAP2 POP POP DUP1 PUSH1 0x0 ADD SLOAD SWAP1 DUP1 PUSH1 0x1 ADD DUP1 SLOAD PUSH2 0x26A SWAP1 PUSH2 0x1235 JUMP JUMPDEST DUP1 PUSH1 0x1F ADD PUSH1 0x20 DUP1 SWAP2 DIV MUL PUSH1 0x20 ADD PUSH1 0x40 MLOAD SWAP1 DUP2 ADD PUSH1 0x40 MSTORE DUP1 SWAP3 SWAP2 SWAP1 DUP2 DUP2 MSTORE PUSH1 0x20 ADD DUP3 DUP1 SLOAD PUSH2 0x296 SWAP1 PUSH2 0x1235 JUMP JUMPDEST DUP1 ISZERO PUSH2 0x2E3 JUMPI DUP1 PUSH1 0x1F LT PUSH2 0x2B8 JUMPI PUSH2 0x100 DUP1 DUP4 SLOAD DIV MUL DUP4 MSTORE SWAP2 PUSH1 0x20 ADD SWAP2 PUSH2 0x2E3 JUMP JUMPDEST DUP3 ADD SWAP2 SWAP1 PUSH1 0x0 MSTORE PUSH1 0x20 PUSH1 0x0 KECCAK256 SWAP1 JUMPDEST DUP2 SLOAD DUP2 MSTORE SWAP1 PUSH1 0x1 ADD SWAP1 PUSH1 0x20 ADD DUP1 DUP4 GT PUSH2 0x2C6 JUMPI DUP3 SWAP1 SUB PUSH1 0x1F AND DUP3 ADD SWAP2 JUMPDEST POP POP POP POP POP SWAP1 DUP1 PUSH1 0x2 ADD DUP1 SLOAD PUSH2 0x2F8 SWAP1 PUSH2 0x1235 JUMP JUMPDEST DUP1 PUSH1 0x1F ADD PUSH1 0x20 DUP1 SWAP2 DIV MUL PUSH1 0x20 ADD PUSH1 0x40 MLOAD SWAP1 DUP2 ADD PUSH1 0x40 MSTORE DUP1 SWAP3 SWAP2 SWAP1 DUP2 DUP2 MSTORE PUSH1 0x20 ADD DUP3 DUP1 SLOAD PUSH2 0x324 SWAP1 PUSH2 0x1235 JUMP JUMPDEST DUP1 ISZERO PUSH2 0x371 JUMPI DUP1 PUSH1 0x1F LT PUSH2 0x346 JUMPI PUSH2 0x100 DUP1 DUP4 SLOAD DIV MUL DUP4 MSTORE SWAP2 PUSH1 0x20 ADD SWAP2 PUSH2 0x371 JUMP JUMPDEST DUP3 ADD SWAP2 SWAP1 PUSH1 0x0 MSTORE PUSH1 0x20 PUSH1 0x0 KECCAK256 SWAP1 JUMPDEST DUP2 SLOAD DUP2 MSTORE SWAP1 PUSH1 0x1 ADD SWAP1 PUSH1 0x20 ADD DUP1 DUP4 GT PUSH2 0x354 JUMPI DUP3 SWAP1 SUB PUSH1 0x1F AND DUP3 ADD SWAP2 JUMPDEST POP POP POP POP POP SWAP1 DUP1 PUSH1 0x3 ADD DUP1 SLOAD PUSH2 0x386 SWAP1 PUSH2 0x1235 JUMP JUMPDEST DUP1 PUSH1 0x1F ADD PUSH1 0x20 DUP1 SWAP2 DIV MUL PUSH1 0x20 ADD PUSH1 0x40 MLOAD SWAP1 DUP2 ADD PUSH1 0x40 MSTORE DUP1 SWAP3 SWAP2 SWAP1 DUP2 DUP2 MSTORE PUSH1 0x20 ADD DUP3 DUP1 SLOAD PUSH2 0x3B2 SWAP1 PUSH2 0x1235 JUMP JUMPDEST DUP1 ISZERO PUSH2 0x3FF JUMPI DUP1 PUSH1 0x1F LT PUSH2 0x3D4 JUMPI PUSH2 0x100 DUP1 DUP4 SLOAD DIV MUL DUP4 MSTORE SWAP2 PUSH1 0x20 ADD SWAP2 PUSH2 0x3FF JUMP JUMPDEST DUP3 ADD SWAP2 SWAP1 PUSH1 0x0 MSTORE PUSH1 0x20 PUSH1 0x0 KECCAK256 SWAP1 JUMPDEST DUP2 SLOAD DUP2 MSTORE SWAP1 PUSH1 0x1 ADD SWAP1 PUSH1 0x20 ADD DUP1 DUP4 GT PUSH2 0x3E2 JUMPI DUP3 SWAP1 SUB PUSH1 0x1F AND DUP3 ADD SWAP2 JUMPDEST POP POP POP POP POP SWAP1 DUP1 PUSH1 0x4 ADD DUP1 SLOAD PUSH2 0x414 SWAP1 PUSH2 0x1235 JUMP JUMPDEST DUP1 PUSH1 0x1F ADD PUSH1 0x20 DUP1 SWAP2 DIV MUL PUSH1 0x20 ADD PUSH1 0x40 MLOAD SWAP1 DUP2 ADD PUSH1 0x40 MSTORE DUP1 SWAP3 SWAP2 SWAP1 DUP2 DUP2 MSTORE PUSH1 0x20 ADD DUP3 DUP1 SLOAD PUSH2 0x440 SWAP1 PUSH2 0x1235 JUMP JUMPDEST DUP1 ISZERO PUSH2 0x48D JUMPI DUP1 PUSH1 0x1F LT PUSH2 0x462 JUMPI PUSH2 0x100 DUP1 DUP4 SLOAD DIV MUL DUP4 MSTORE SWAP2 PUSH1 0x20 ADD SWAP2 PUSH2 0x48D JUMP JUMPDEST DUP3 ADD SWAP2 SWAP1 PUSH1 0x0 MSTORE PUSH1 0x20 PUSH1 0x0 KECCAK256 SWAP1 JUMPDEST DUP2 SLOAD DUP2 MSTORE SWAP1 PUSH1 0x1 ADD SWAP1 PUSH1 0x20 ADD DUP1 DUP4 GT PUSH2 0x470 JUMPI DUP3 SWAP1 SUB PUSH1 0x1F AND DUP3 ADD SWAP2 JUMPDEST POP POP POP POP POP SWAP1 DUP1 PUSH1 0x5 ADD DUP1 SLOAD PUSH2 0x4A2 SWAP1 PUSH2 0x1235 JUMP JUMPDEST DUP1 PUSH1 0x1F ADD PUSH1 0x20 DUP1 SWAP2 DIV MUL PUSH1 0x20 ADD PUSH1 0x40 MLOAD SWAP1 DUP2 ADD PUSH1 0x40 MSTORE DUP1 SWAP3 SWAP2 SWAP1 DUP2 DUP2 MSTORE PUSH1 0x20 ADD DUP3 DUP1 SLOAD PUSH2 0x4CE SWAP1 PUSH2 0x1235 JUMP JUMPDEST DUP1 ISZERO PUSH2 0x51B JUMPI DUP1 PUSH1 0x1F LT PUSH2 0x4F0 JUMPI PUSH2 0x100 DUP1 DUP4 SLOAD DIV MUL DUP4 MSTORE SWAP2 PUSH1 0x20 ADD SWAP2 PUSH2 0x51B JUMP JUMPDEST DUP3 ADD SWAP2 SWAP1 PUSH1 0x0 MSTORE PUSH1 0x20 PUSH1 0x0 KECCAK256 SWAP1 JUMPDEST DUP2 SLOAD DUP2 MSTORE SWAP1 PUSH1 0x1 ADD SWAP1 PUSH1 0x20 ADD DUP1 DUP4 GT PUSH2 0x4FE JUMPI DUP3 SWAP1 SUB PUSH1 0x1F AND DUP3 ADD SWAP2 JUMPDEST POP POP POP POP POP SWAP1 DUP1 PUSH1 0x6 ADD DUP1 SLOAD PUSH2 0x530 SWAP1 PUSH2 0x1235 JUMP JUMPDEST DUP1 PUSH1 0x1F ADD PUSH1 0x20 DUP1 SWAP2 DIV MUL PUSH1 0x20 ADD PUSH1 0x40 MLOAD SWAP1 DUP2 ADD PUSH1 0x40 MSTORE DUP1 SWAP3 SWAP2 SWAP1 DUP2 DUP2 MSTORE PUSH1 0x20 ADD DUP3 DUP1 SLOAD PUSH2 0x55C SWAP1 PUSH2 0x1235 JUMP JUMPDEST DUP1 ISZERO PUSH2 0x5A9 JUMPI DUP1 PUSH1 0x1F LT PUSH2 0x57E JUMPI PUSH2 0x100 DUP1 DUP4 SLOAD DIV MUL DUP4 MSTORE SWAP2 PUSH1 0x20 ADD SWAP2 PUSH2 0x5A9 JUMP JUMPDEST DUP3 ADD SWAP2 SWAP1 PUSH1 0x0 MSTORE PUSH1 0x20 PUSH1 0x0 KECCAK256 SWAP1 JUMPDEST DUP2 SLOAD DUP2 MSTORE SWAP1 PUSH1 0x1 ADD SWAP1 PUSH1 0x20 ADD DUP1 DUP4 GT PUSH2 0x58C JUMPI DUP3 SWAP1 SUB PUSH1 0x1F AND DUP3 ADD SWAP2 JUMPDEST POP POP POP POP POP SWAP1 DUP1 PUSH1 0x7 ADD DUP1 SLOAD PUSH2 0x5BE SWAP1 PUSH2 0x1235 JUMP JUMPDEST DUP1 PUSH1 0x1F ADD PUSH1 0x20 DUP1 SWAP2 DIV MUL PUSH1 0x20 ADD PUSH1 0x40 MLOAD SWAP1 DUP2 ADD PUSH1 0x40 MSTORE DUP1 SWAP3 SWAP2 SWAP1 DUP2 DUP2 MSTORE PUSH1 0x20 ADD DUP3 DUP1 SLOAD PUSH2 0x5EA SWAP1 PUSH2 0x1235 JUMP JUMPDEST DUP1 ISZERO PUSH2 0x637 JUMPI DUP1 PUSH1 0x1F LT PUSH2 0x60C JUMPI PUSH2 0x100 DUP1 DUP4 SLOAD DIV MUL DUP4 MSTORE SWAP2 PUSH1 0x20 ADD SWAP2 PUSH2 0x637 JUMP JUMPDEST DUP3 ADD SWAP2 SWAP1 PUSH1 0x0 MSTORE PUSH1 0x20 PUSH1 0x0 KECCAK256 SWAP1 JUMPDEST DUP2 SLOAD DUP2 MSTORE SWAP1 PUSH1 0x1 ADD SWAP1 PUSH1 0x20 ADD DUP1 DUP4 GT PUSH2 0x61A JUMPI DUP3 SWAP1 SUB PUSH1 0x1F AND DUP3 ADD SWAP2 JUMPDEST POP POP POP POP POP SWAP1 DUP1 PUSH1 0x8 ADD DUP1 SLOAD PUSH2 0x64C SWAP1 PUSH2 0x1235 JUMP JUMPDEST DUP1 PUSH1 0x1F ADD PUSH1 0x20 DUP1 SWAP2 DIV MUL PUSH1 0x20 ADD PUSH1 0x40 MLOAD SWAP1 DUP2 ADD PUSH1 0x40 MSTORE DUP1 SWAP3 SWAP2 SWAP1 DUP2 DUP2 MSTORE PUSH1 0x20 ADD DUP3 DUP1 SLOAD PUSH2 0x678 SWAP1 PUSH2 0x1235 JUMP JUMPDEST DUP1 ISZERO PUSH2 0x6C5 JUMPI DUP1 PUSH1 0x1F LT PUSH2 0x69A JUMPI PUSH2 0x100 DUP1 DUP4 SLOAD DIV MUL DUP4 MSTORE SWAP2 PUSH1 0x20 ADD SWAP2 PUSH2 0x6C5 JUMP JUMPDEST DUP3 ADD SWAP2 SWAP1 PUSH1 0x0 MSTORE PUSH1 0x20 PUSH1 0x0 KECCAK256 SWAP1 JUMPDEST DUP2 SLOAD DUP2 MSTORE SWAP1 PUSH1 0x1 ADD SWAP1 PUSH1 0x20 ADD DUP1 DUP4 GT PUSH2 0x6A8 JUMPI DUP3 SWAP1 SUB PUSH1 0x1F AND DUP3 ADD SWAP2 JUMPDEST POP POP POP POP POP SWAP1 DUP1 PUSH1 0x9 ADD DUP1 SLOAD PUSH2 0x6DA SWAP1 PUSH2 0x1235 JUMP JUMPDEST DUP1 PUSH1 0x1F ADD PUSH1 0x20 DUP1 SWAP2 DIV MUL PUSH1 0x20 ADD PUSH1 0x40 MLOAD SWAP1 DUP2 ADD PUSH1 0x40 MSTORE DUP1 SWAP3 SWAP2 SWAP1 DUP2 DUP2 MSTORE PUSH1 0x20 ADD DUP3 DUP1 SLOAD PUSH2 0x706 SWAP1 PUSH2 0x1235 JUMP JUMPDEST DUP1 ISZERO PUSH2 0x753 JUMPI DUP1 PUSH1 0x1F LT PUSH2 0x728 JUMPI PUSH2 0x100 DUP1 DUP4 SLOAD DIV MUL DUP4 MSTORE SWAP2 PUSH1 0x20 ADD SWAP2 PUSH2 0x753 JUMP JUMPDEST DUP3 ADD SWAP2 SWAP1 PUSH1 0x0 MSTORE PUSH1 0x20 PUSH1 0x0 KECCAK256 SWAP1 JUMPDEST DUP2 SLOAD DUP2 MSTORE SWAP1 PUSH1 0x1 ADD SWAP1 PUSH1 0x20 ADD DUP1 DUP4 GT PUSH2 0x736 JUMPI DUP3 SWAP1 SUB PUSH1 0x1F AND DUP3 ADD SWAP2 JUMPDEST POP POP POP POP POP SWAP1 POP DUP11 JUMP JUMPDEST PUSH1 0x0 DUP2 DUP2 MSTORE PUSH1 0x20 DUP2 DUP2 MSTORE PUSH1 0x40 DUP1 DUP4 KECCAK256 DUP1 SLOAD DUP3 MLOAD DUP2 DUP6 MUL DUP2 ADD DUP6 ADD SWAP1 SWAP4 MSTORE DUP1 DUP4 MSTORE PUSH1 0x60 SWAP5 SWAP3 SWAP4 SWAP2 SWAP3 SWAP1 SWAP2 DUP5 ADD JUMPDEST DUP3 DUP3 LT ISZERO PUSH2 0xCE8 JUMPI DUP4 DUP3 SWAP1 PUSH1 0x0 MSTORE PUSH1 0x20 PUSH1 0x0 KECCAK256 SWAP1 PUSH1 0xA MUL ADD PUSH1 0x40 MLOAD DUP1 PUSH2 0x140 ADD PUSH1 0x40 MSTORE SWAP1 DUP2 PUSH1 0x0 DUP3 ADD SLOAD DUP2 MSTORE PUSH1 0x20 ADD PUSH1 0x1 DUP3 ADD DUP1 SLOAD PUSH2 0x7C7 SWAP1 PUSH2 0x1235 JUMP JUMPDEST DUP1 PUSH1 0x1F ADD PUSH1 0x20 DUP1 SWAP2 DIV MUL PUSH1 0x20 ADD PUSH1 0x40 MLOAD SWAP1 DUP2 ADD PUSH1 0x40 MSTORE DUP1 SWAP3 SWAP2 SWAP1 DUP2 DUP2 MSTORE PUSH1 0x20 ADD DUP3 DUP1 SLOAD PUSH2 0x7F3 SWAP1 PUSH2 0x1235 JUMP JUMPDEST DUP1 ISZERO PUSH2 0x840 JUMPI DUP1 PUSH1 0x1F LT PUSH2 0x815 JUMPI PUSH2 0x100 DUP1 DUP4 SLOAD DIV MUL DUP4 MSTORE SWAP2 PUSH1 0x20 ADD SWAP2 PUSH2 0x840 JUMP JUMPDEST DUP3 ADD SWAP2 SWAP1 PUSH1 0x0 MSTORE PUSH1 0x20 PUSH1 0x0 KECCAK256 SWAP1 JUMPDEST DUP2 SLOAD DUP2 MSTORE SWAP1 PUSH1 0x1 ADD SWAP1 PUSH1 0x20 ADD DUP1 DUP4 GT PUSH2 0x823 JUMPI DUP3 SWAP1 SUB PUSH1 0x1F AND DUP3 ADD SWAP2 JUMPDEST POP POP POP POP POP DUP2 MSTORE PUSH1 0x20 ADD PUSH1 0x2 DUP3 ADD DUP1 SLOAD PUSH2 0x859 SWAP1 PUSH2 0x1235 JUMP JUMPDEST DUP1 PUSH1 0x1F ADD PUSH1 0x20 DUP1 SWAP2 DIV MUL PUSH1 0x20 ADD PUSH1 0x40 MLOAD SWAP1 DUP2 ADD PUSH1 0x40 MSTORE DUP1 SWAP3 SWAP2 SWAP1 DUP2 DUP2 MSTORE PUSH1 0x20 ADD DUP3 DUP1 SLOAD PUSH2 0x885 SWAP1 PUSH2 0x1235 JUMP JUMPDEST DUP1 ISZERO PUSH2 0x8D2 JUMPI DUP1 PUSH1 0x1F LT PUSH2 0x8A7 JUMPI PUSH2 0x100 DUP1 DUP4 SLOAD DIV MUL DUP4 MSTORE SWAP2 PUSH1 0x20 ADD SWAP2 PUSH2 0x8D2 JUMP JUMPDEST DUP3 ADD SWAP2 SWAP1 PUSH1 0x0 MSTORE PUSH1 0x20 PUSH1 0x0 KECCAK256 SWAP1 JUMPDEST DUP2 SLOAD DUP2 MSTORE SWAP1 PUSH1 0x1 ADD SWAP1 PUSH1 0x20 ADD DUP1 DUP4 GT PUSH2 0x8B5 JUMPI DUP3 SWAP1 SUB PUSH1 0x1F AND DUP3 ADD SWAP2 JUMPDEST POP POP POP POP POP DUP2 MSTORE PUSH1 0x20 ADD PUSH1 0x3 DUP3 ADD DUP1 SLOAD PUSH2 0x8EB SWAP1 PUSH2 0x1235 JUMP JUMPDEST DUP1 PUSH1 0x1F ADD PUSH1 0x20 DUP1 SWAP2 DIV MUL PUSH1 0x20 ADD PUSH1 0x40 MLOAD SWAP1 DUP2 ADD PUSH1 0x40 MSTORE DUP1 SWAP3 SWAP2 SWAP1 DUP2 DUP2 MSTORE PUSH1 0x20 ADD DUP3 DUP1 SLOAD PUSH2 0x917 SWAP1 PUSH2 0x1235 JUMP JUMPDEST DUP1 ISZERO PUSH2 0x964 JUMPI DUP1 PUSH1 0x1F LT PUSH2 0x939 JUMPI PUSH2 0x100 DUP1 DUP4 SLOAD DIV MUL DUP4 MSTORE SWAP2 PUSH1 0x20 ADD SWAP2 PUSH2 0x964 JUMP JUMPDEST DUP3 ADD SWAP2 SWAP1 PUSH1 0x0 MSTORE PUSH1 0x20 PUSH1 0x0 KECCAK256 SWAP1 JUMPDEST DUP2 SLOAD DUP2 MSTORE SWAP1 PUSH1 0x1 ADD SWAP1 PUSH1 0x20 ADD DUP1 DUP4 GT PUSH2 0x947 JUMPI DUP3 SWAP1 SUB PUSH1 0x1F AND DUP3 ADD SWAP2 JUMPDEST POP POP POP POP POP DUP2 MSTORE PUSH1 0x20 ADD PUSH1 0x4 DUP3 ADD DUP1 SLOAD PUSH2 0x97D SWAP1 PUSH2 0x1235 JUMP JUMPDEST DUP1 PUSH1 0x1F ADD PUSH1 0x20 DUP1 SWAP2 DIV MUL PUSH1 0x20 ADD PUSH1 0x40 MLOAD SWAP1 DUP2 ADD PUSH1 0x40 MSTORE DUP1 SWAP3 SWAP2 SWAP1 DUP2 DUP2 MSTORE PUSH1 0x20 ADD DUP3 DUP1 SLOAD PUSH2 0x9A9 SWAP1 PUSH2 0x1235 JUMP JUMPDEST DUP1 ISZERO PUSH2 0x9F6 JUMPI DUP1 PUSH1 0x1F LT PUSH2 0x9CB JUMPI PUSH2 0x100 DUP1 DUP4 SLOAD DIV MUL DUP4 MSTORE SWAP2 PUSH1 0x20 ADD SWAP2 PUSH2 0x9F6 JUMP JUMPDEST DUP3 ADD SWAP2 SWAP1 PUSH1 0x0 MSTORE PUSH1 0x20 PUSH1 0x0 KECCAK256 SWAP1 JUMPDEST DUP2 SLOAD DUP2 MSTORE SWAP1 PUSH1 0x1 ADD SWAP1 PUSH1 0x20 ADD DUP1 DUP4 GT PUSH2 0x9D9 JUMPI DUP3 SWAP1 SUB PUSH1 0x1F AND DUP3 ADD SWAP2 JUMPDEST POP POP POP POP POP DUP2 MSTORE PUSH1 0x20 ADD PUSH1 0x5 DUP3 ADD DUP1 SLOAD PUSH2 0xA0F SWAP1 PUSH2 0x1235 JUMP JUMPDEST DUP1 PUSH1 0x1F ADD PUSH1 0x20 DUP1 SWAP2 DIV MUL PUSH1 0x20 ADD PUSH1 0x40 MLOAD SWAP1 DUP2 ADD PUSH1 0x40 MSTORE DUP1 SWAP3 SWAP2 SWAP1 DUP2 DUP2 MSTORE PUSH1 0x20 ADD DUP3 DUP1 SLOAD PUSH2 0xA3B SWAP1 PUSH2 0x1235 JUMP JUMPDEST DUP1 ISZERO PUSH2 0xA88 JUMPI DUP1 PUSH1 0x1F LT PUSH2 0xA5D JUMPI PUSH2 0x100 DUP1 DUP4 SLOAD DIV MUL DUP4 MSTORE SWAP2 PUSH1 0x20 ADD SWAP2 PUSH2 0xA88 JUMP JUMPDEST DUP3 ADD SWAP2 SWAP1 PUSH1 0x0 MSTORE PUSH1 0x20 PUSH1 0x0 KECCAK256 SWAP1 JUMPDEST DUP2 SLOAD DUP2 MSTORE SWAP1 PUSH1 0x1 ADD SWAP1 PUSH1 0x20 ADD DUP1 DUP4 GT PUSH2 0xA6B JUMPI DUP3 SWAP1 SUB PUSH1 0x1F AND DUP3 ADD SWAP2 JUMPDEST POP POP POP POP POP DUP2 MSTORE PUSH1 0x20 ADD PUSH1 0x6 DUP3 ADD DUP1 SLOAD PUSH2 0xAA1 SWAP1 PUSH2 0x1235 JUMP JUMPDEST DUP1 PUSH1 0x1F ADD PUSH1 0x20 DUP1 SWAP2 DIV MUL PUSH1 0x20 ADD PUSH1 0x40 MLOAD SWAP1 DUP2 ADD PUSH1 0x40 MSTORE DUP1 SWAP3 SWAP2 SWAP1 DUP2 DUP2 MSTORE PUSH1 0x20 ADD DUP3 DUP1 SLOAD PUSH2 0xACD SWAP1 PUSH2 0x1235 JUMP JUMPDEST DUP1 ISZERO PUSH2 0xB1A JUMPI DUP1 PUSH1 0x1F LT PUSH2 0xAEF JUMPI PUSH2 0x100 DUP1 DUP4 SLOAD DIV MUL DUP4 MSTORE SWAP2 PUSH1 0x20 ADD SWAP2 PUSH2 0xB1A JUMP JUMPDEST DUP3 ADD SWAP2 SWAP1 PUSH1 0x0 MSTORE PUSH1 0x20 PUSH1 0x0 KECCAK256 SWAP1 JUMPDEST DUP2 SLOAD DUP2 MSTORE SWAP1 PUSH1 0x1 ADD SWAP1 PUSH1 0x20 ADD DUP1 DUP4 GT PUSH2 0xAFD JUMPI DUP3 SWAP1 SUB PUSH1 0x1F AND DUP3 ADD SWAP2 JUMPDEST POP POP POP POP POP DUP2 MSTORE PUSH1 0x20 ADD PUSH1 0x7 DUP3 ADD DUP1 SLOAD PUSH2 0xB33 SWAP1 PUSH2 0x1235 JUMP JUMPDEST DUP1 PUSH1 0x1F ADD PUSH1 0x20 DUP1 SWAP2 DIV MUL PUSH1 0x20 ADD PUSH1 0x40 MLOAD SWAP1 DUP2 ADD PUSH1 0x40 MSTORE DUP1 SWAP3 SWAP2 SWAP1 DUP2 DUP2 MSTORE PUSH1 0x20 ADD DUP3 DUP1 SLOAD PUSH2 0xB5F SWAP1 PUSH2 0x1235 JUMP JUMPDEST DUP1 ISZERO PUSH2 0xBAC JUMPI DUP1 PUSH1 0x1F LT PUSH2 0xB81 JUMPI PUSH2 0x100 DUP1 DUP4 SLOAD DIV MUL DUP4 MSTORE SWAP2 PUSH1 0x20 ADD SWAP2 PUSH2 0xBAC JUMP JUMPDEST DUP3 ADD SWAP2 SWAP1 PUSH1 0x0 MSTORE PUSH1 0x20 PUSH1 0x0 KECCAK256 SWAP1 JUMPDEST DUP2 SLOAD DUP2 MSTORE SWAP1 PUSH1 0x1 ADD SWAP1 PUSH1 0x20 ADD DUP1 DUP4 GT PUSH2 0xB8F JUMPI DUP3 SWAP1 SUB PUSH1 0x1F AND DUP3 ADD SWAP2 JUMPDEST POP POP POP POP POP DUP2 MSTORE PUSH1 0x20 ADD PUSH1 0x8 DUP3 ADD DUP1 SLOAD PUSH2 0xBC5 SWAP1 PUSH2 0x1235 JUMP JUMPDEST DUP1 PUSH1 0x1F ADD PUSH1 0x20 DUP1 SWAP2 DIV MUL PUSH1 0x20 ADD PUSH1 0x40 MLOAD SWAP1 DUP2 ADD PUSH1 0x40 MSTORE DUP1 SWAP3 SWAP2 SWAP1 DUP2 DUP2 MSTORE PUSH1 0x20 ADD DUP3 DUP1 SLOAD PUSH2 0xBF1 SWAP1 PUSH2 0x1235 JUMP JUMPDEST DUP1 ISZERO PUSH2 0xC3E JUMPI DUP1 PUSH1 0x1F LT PUSH2 0xC13 JUMPI PUSH2 0x100 DUP1 DUP4 SLOAD DIV MUL DUP4 MSTORE SWAP2 PUSH1 0x20 ADD SWAP2 PUSH2 0xC3E JUMP JUMPDEST DUP3 ADD SWAP2 SWAP1 PUSH1 0x0 MSTORE PUSH1 0x20 PUSH1 0x0 KECCAK256 SWAP1 JUMPDEST DUP2 SLOAD DUP2 MSTORE SWAP1 PUSH1 0x1 ADD SWAP1 PUSH1 0x20 ADD DUP1 DUP4 GT PUSH2 0xC21 JUMPI DUP3 SWAP1 SUB PUSH1 0x1F AND DUP3 ADD SWAP2 JUMPDEST POP POP POP POP POP DUP2 MSTORE PUSH1 0x20 ADD PUSH1 0x9 DUP3 ADD DUP1 SLOAD PUSH2 0xC57 SWAP1 PUSH2 0x1235 JUMP JUMPDEST DUP1 PUSH1 0x1F ADD PUSH1 0x20 DUP1 SWAP2 DIV MUL PUSH1 0x20 ADD PUSH1 0x40 MLOAD SWAP1 DUP2 ADD PUSH1 0x40 MSTORE DUP1 SWAP3 SWAP2 SWAP1 DUP2 DUP2 MSTORE PUSH1 0x20 ADD DUP3 DUP1 SLOAD PUSH2 0xC83 SWAP1 PUSH2 0x1235 JUMP JUMPDEST DUP1 ISZERO PUSH2 0xCD0 JUMPI DUP1 PUSH1 0x1F LT PUSH2 0xCA5 JUMPI PUSH2 0x100 DUP1 DUP4 SLOAD DIV MUL DUP4 MSTORE SWAP2 PUSH1 0x20 ADD SWAP2 PUSH2 0xCD0 JUMP JUMPDEST DUP3 ADD SWAP2 SWAP1 PUSH1 0x0 MSTORE PUSH1 0x20 PUSH1 0x0 KECCAK256 SWAP1 JUMPDEST DUP2 SLOAD DUP2 MSTORE SWAP1 PUSH1 0x1 ADD SWAP1 PUSH1 0x20 ADD DUP1 DUP4 GT PUSH2 0xCB3 JUMPI DUP3 SWAP1 SUB PUSH1 0x1F AND DUP3 ADD SWAP2 JUMPDEST POP POP POP POP POP DUP2 MSTORE POP POP DUP2 MSTORE PUSH1 0x20 ADD SWAP1 PUSH1 0x1 ADD SWAP1 PUSH2 0x789 JUMP JUMPDEST POP POP POP POP SWAP1 POP SWAP2 SWAP1 POP JUMP JUMPDEST PUSH1 0x1 DUP1 SLOAD PUSH1 0x0 SWAP2 DUP3 PUSH2 0xD04 DUP4 PUSH2 0x137D JUMP JUMPDEST SWAP2 SWAP1 POP SSTORE POP PUSH32 0x2354C6982830F23074CBADD3A8326546827CA5BE87B6CFE41E906C66E75CD965 PUSH1 0x1 SLOAD PUSH1 0x40 MLOAD PUSH2 0xD3C SWAP2 DUP2 MSTORE PUSH1 0x20 ADD SWAP1 JUMP JUMPDEST PUSH1 0x40 MLOAD DUP1 SWAP2 SUB SWAP1 LOG1 POP PUSH1 0x1 SLOAD SWAP1 JUMP JUMPDEST PUSH4 0x4E487B71 PUSH1 0xE0 SHL PUSH1 0x0 MSTORE PUSH1 0x41 PUSH1 0x4 MSTORE PUSH1 0x24 PUSH1 0x0 REVERT JUMPDEST PUSH1 0x0 DUP3 PUSH1 0x1F DUP4 ADD SLT PUSH2 0xD72 JUMPI PUSH1 0x0 DUP1 REVERT JUMPDEST DUP2 CALLDATALOAD PUSH8 0xFFFFFFFFFFFFFFFF DUP2 GT ISZERO PUSH2 0xD8C JUMPI PUSH2 0xD8C PUSH2 0xD4B JUMP JUMPDEST PUSH1 0x40 MLOAD PUSH1 0x1F DUP3 ADD PUSH1 0x1F NOT SWAP1 DUP2 AND PUSH1 0x3F ADD AND DUP2 ADD PUSH8 0xFFFFFFFFFFFFFFFF DUP2 GT DUP3 DUP3 LT OR ISZERO PUSH2 0xDBB JUMPI PUSH2 0xDBB PUSH2 0xD4B JUMP JUMPDEST PUSH1 0x40 MSTORE DUP2 DUP2 MSTORE DUP4 DUP3 ADD PUSH1 0x20 ADD DUP6 LT ISZERO PUSH2 0xDD3 JUMPI PUSH1 0x0 DUP1 REVERT JUMPDEST DUP2 PUSH1 0x20 DUP6 ADD PUSH1 0x20 DUP4 ADD CALLDATACOPY PUSH1 0x0 SWAP2 DUP2 ADD PUSH1 0x20 ADD SWAP2 SWAP1 SWAP2 MSTORE SWAP4 SWAP3 POP POP POP JUMP JUMPDEST PUSH1 0x0 DUP1 PUSH1 0x0 DUP1 PUSH1 0x0 DUP1 PUSH1 0x0 DUP1 PUSH1 0x0 DUP1 PUSH2 0x140 DUP12 DUP14 SUB SLT ISZERO PUSH2 0xE10 JUMPI PUSH1 0x0 DUP1 REVERT JUMPDEST DUP11 CALLDATALOAD SWAP10 POP PUSH1 0x20 DUP12 ADD CALLDATALOAD PUSH8 0xFFFFFFFFFFFFFFFF DUP2 GT ISZERO PUSH2 0xE2E JUMPI PUSH1 0x0 DUP1 REVERT JUMPDEST PUSH2 0xE3A DUP14 DUP3 DUP15 ADD PUSH2 0xD61 JUMP JUMPDEST SWAP10 POP POP PUSH1 0x40 DUP12 ADD CALLDATALOAD PUSH8 0xFFFFFFFFFFFFFFFF DUP2 GT ISZERO PUSH2 0xE57 JUMPI PUSH1 0x0 DUP1 REVERT JUMPDEST PUSH2 0xE63 DUP14 DUP3 DUP15 ADD PUSH2 0xD61 JUMP JUMPDEST SWAP9 POP POP PUSH1 0x60 DUP12 ADD CALLDATALOAD PUSH8 0xFFFFFFFFFFFFFFFF DUP2 GT ISZERO PUSH2 0xE80 JUMPI PUSH1 0x0 DUP1 REVERT JUMPDEST PUSH2 0xE8C DUP14 DUP3 DUP15 ADD PUSH2 0xD61 JUMP JUMPDEST SWAP8 POP POP PUSH1 0x80 DUP12 ADD CALLDATALOAD PUSH8 0xFFFFFFFFFFFFFFFF DUP2 GT ISZERO PUSH2 0xEA9 JUMPI PUSH1 0x0 DUP1 REVERT JUMPDEST PUSH2 0xEB5 DUP14 DUP3 DUP15 ADD PUSH2 0xD61 JUMP JUMPDEST SWAP7 POP POP PUSH1 0xA0 DUP12 ADD CALLDATALOAD PUSH8 0xFFFFFFFFFFFFFFFF DUP2 GT ISZERO PUSH2 0xED2 JUMPI PUSH1 0x0 DUP1 REVERT JUMPDEST PUSH2 0xEDE DUP14 DUP3 DUP15 ADD PUSH2 0xD61 JUMP JUMPDEST SWAP6 POP POP PUSH1 0xC0 DUP12 ADD CALLDATALOAD PUSH8 0xFFFFFFFFFFFFFFFF DUP2 GT ISZERO PUSH2 0xEFB JUMPI PUSH1 0x0 DUP1 REVERT JUMPDEST PUSH2 0xF07 DUP14 DUP3 DUP15 ADD PUSH2 0xD61 JUMP JUMPDEST SWAP5 POP POP PUSH1 0xE0 DUP12 ADD CALLDATALOAD PUSH8 0xFFFFFFFFFFFFFFFF DUP2 GT ISZERO PUSH2 0xF24 JUMPI PUSH1 0x0 DUP1 REVERT JUMPDEST PUSH2 0xF30 DUP14 DUP3 DUP15 ADD PUSH2 0xD61 JUMP JUMPDEST SWAP4 POP POP PUSH2 0x100 DUP12 ADD CALLDATALOAD PUSH8 0xFFFFFFFFFFFFFFFF DUP2 GT ISZERO PUSH2 0xF4E JUMPI PUSH1 0x0 DUP1 REVERT JUMPDEST PUSH2 0xF5A DUP14 DUP3 DUP15 ADD PUSH2 0xD61 JUMP JUMPDEST SWAP3 POP POP PUSH2 0x120 DUP12 ADD CALLDATALOAD PUSH8 0xFFFFFFFFFFFFFFFF DUP2 GT ISZERO PUSH2 0xF78 JUMPI PUSH1 0x0 DUP1 REVERT JUMPDEST PUSH2 0xF84 DUP14 DUP3 DUP15 ADD PUSH2 0xD61 JUMP JUMPDEST SWAP2 POP POP SWAP3 SWAP6 SWAP9 SWAP12 SWAP2 SWAP5 SWAP8 SWAP11 POP SWAP3 SWAP6 SWAP9 POP JUMP JUMPDEST PUSH1 0x0 DUP1 PUSH1 0x40 DUP4 DUP6 SUB SLT ISZERO PUSH2 0xFA9 JUMPI PUSH1 0x0 DUP1 REVERT JUMPDEST POP POP DUP1 CALLDATALOAD SWAP3 PUSH1 0x20 SWAP1 SWAP2 ADD CALLDATALOAD SWAP2 POP JUMP JUMPDEST PUSH1 0x0 DUP2 MLOAD DUP1 DUP5 MSTORE PUSH1 0x0 JUMPDEST DUP2 DUP2 LT ISZERO PUSH2 0xFDE JUMPI PUSH1 0x20 DUP2 DUP6 ADD DUP2 ADD MLOAD DUP7 DUP4 ADD DUP3 ADD MSTORE ADD PUSH2 0xFC2 JUMP JUMPDEST POP PUSH1 0x0 PUSH1 0x20 DUP3 DUP7 ADD ADD MSTORE PUSH1 0x20 PUSH1 0x1F NOT PUSH1 0x1F DUP4 ADD AND DUP6 ADD ADD SWAP2 POP POP SWAP3 SWAP2 POP POP JUMP JUMPDEST DUP11 DUP2 MSTORE PUSH2 0x140 PUSH1 0x20 DUP3 ADD MSTORE PUSH1 0x0 PUSH2 0x1019 PUSH2 0x140 DUP4 ADD DUP13 PUSH2 0xFB8 JUMP JUMPDEST DUP3 DUP2 SUB PUSH1 0x40 DUP5 ADD MSTORE PUSH2 0x102B DUP2 DUP13 PUSH2 0xFB8 JUMP JUMPDEST SWAP1 POP DUP3 DUP2 SUB PUSH1 0x60 DUP5 ADD MSTORE PUSH2 0x103F DUP2 DUP12 PUSH2 0xFB8 JUMP JUMPDEST SWAP1 POP DUP3 DUP2 SUB PUSH1 0x80 DUP5 ADD MSTORE PUSH2 0x1053 DUP2 DUP11 PUSH2 0xFB8 JUMP JUMPDEST SWAP1 POP DUP3 DUP2 SUB PUSH1 0xA0 DUP5 ADD MSTORE PUSH2 0x1067 DUP2 DUP10 PUSH2 0xFB8 JUMP JUMPDEST SWAP1 POP DUP3 DUP2 SUB PUSH1 0xC0 DUP5 ADD MSTORE PUSH2 0x107B DUP2 DUP9 PUSH2 0xFB8 JUMP JUMPDEST SWAP1 POP DUP3 DUP2 SUB PUSH1 0xE0 DUP5 ADD MSTORE PUSH2 0x108F DUP2 DUP8 PUSH2 0xFB8 JUMP JUMPDEST SWAP1 POP DUP3 DUP2 SUB PUSH2 0x100 DUP5 ADD MSTORE PUSH2 0x10A4 DUP2 DUP7 PUSH2 0xFB8 JUMP JUMPDEST SWAP1 POP DUP3 DUP2 SUB PUSH2 0x120 DUP5 ADD MSTORE PUSH2 0x10B9 DUP2 DUP6 PUSH2 0xFB8 JUMP JUMPDEST SWAP14 SWAP13 POP POP POP POP POP POP POP POP POP POP POP POP POP JUMP JUMPDEST PUSH1 0x0 PUSH1 0x20 DUP3 DUP5 SUB SLT ISZERO PUSH2 0x10DC JUMPI PUSH1 0x0 DUP1 REVERT JUMPDEST POP CALLDATALOAD SWAP2 SWAP1 POP JUMP JUMPDEST PUSH1 0x0 PUSH1 0x20 DUP3 ADD PUSH1 0x20 DUP4 MSTORE DUP1 DUP5 MLOAD DUP1 DUP4 MSTORE PUSH1 0x40 DUP6 ADD SWAP2 POP PUSH1 0x40 DUP2 PUSH1 0x5 SHL DUP7 ADD ADD SWAP3 POP PUSH1 0x20 DUP7 ADD PUSH1 0x0 JUMPDEST DUP3 DUP2 LT ISZERO PUSH2 0x1229 JUMPI PUSH1 0x3F NOT DUP8 DUP7 SUB ADD DUP5 MSTORE DUP2 MLOAD DUP1 MLOAD DUP7 MSTORE PUSH1 0x20 DUP2 ADD MLOAD PUSH2 0x140 PUSH1 0x20 DUP9 ADD MSTORE PUSH2 0x113D PUSH2 0x140 DUP9 ADD DUP3 PUSH2 0xFB8 JUMP JUMPDEST SWAP1 POP PUSH1 0x40 DUP3 ADD MLOAD DUP8 DUP3 SUB PUSH1 0x40 DUP10 ADD MSTORE PUSH2 0x1156 DUP3 DUP3 PUSH2 0xFB8 JUMP JUMPDEST SWAP2 POP POP PUSH1 0x60 DUP3 ADD MLOAD DUP8 DUP3 SUB PUSH1 0x60 DUP10 ADD MSTORE PUSH2 0x1170 DUP3 DUP3 PUSH2 0xFB8 JUMP JUMPDEST SWAP2 POP POP PUSH1 0x80 DUP3 ADD MLOAD DUP8 DUP3 SUB PUSH1 0x80 DUP10 ADD MSTORE PUSH2 0x118A DUP3 DUP3 PUSH2 0xFB8 JUMP JUMPDEST SWAP2 POP POP PUSH1 0xA0 DUP3 ADD MLOAD DUP8 DUP3 SUB PUSH1 0xA0 DUP10 ADD MSTORE PUSH2 0x11A4 DUP3 DUP3 PUSH2 0xFB8 JUMP JUMPDEST SWAP2 POP POP PUSH1 0xC0 DUP3 ADD MLOAD DUP8 DUP3 SUB PUSH1 0xC0 DUP10 ADD MSTORE PUSH2 0x11BE DUP3 DUP3 PUSH2 0xFB8 JUMP JUMPDEST SWAP2 POP POP PUSH1 0xE0 DUP3 ADD MLOAD DUP8 DUP3 SUB PUSH1 0xE0 DUP10 ADD MSTORE PUSH2 0x11D8 DUP3 DUP3 PUSH2 0xFB8 JUMP JUMPDEST SWAP2 POP POP PUSH2 0x100 DUP3 ADD MLOAD DUP8 DUP3 SUB PUSH2 0x100 DUP10 ADD MSTORE PUSH2 0x11F4 DUP3 DUP3 PUSH2 0xFB8 JUMP JUMPDEST SWAP2 POP POP PUSH2 0x120 DUP3 ADD MLOAD SWAP2 POP DUP7 DUP2 SUB PUSH2 0x120 DUP9 ADD MSTORE PUSH2 0x1212 DUP2 DUP4 PUSH2 0xFB8 JUMP JUMPDEST SWAP7 POP POP POP PUSH1 0x20 SWAP4 DUP5 ADD SWAP4 SWAP2 SWAP1 SWAP2 ADD SWAP1 PUSH1 0x1 ADD PUSH2 0x110B JUMP JUMPDEST POP SWAP3 SWAP7 SWAP6 POP POP POP POP POP POP JUMP JUMPDEST PUSH1 0x1 DUP2 DUP2 SHR SWAP1 DUP3 AND DUP1 PUSH2 0x1249 JUMPI PUSH1 0x7F DUP3 AND SWAP2 POP JUMPDEST PUSH1 0x20 DUP3 LT DUP2 SUB PUSH2 0x1269 JUMPI PUSH4 0x4E487B71 PUSH1 0xE0 SHL PUSH1 0x0 MSTORE PUSH1 0x22 PUSH1 0x4 MSTORE PUSH1 0x24 PUSH1 0x0 REVERT JUMPDEST POP SWAP2 SWAP1 POP JUMP JUMPDEST PUSH1 0x1F DUP3 GT ISZERO PUSH2 0x12B9 JUMPI DUP1 PUSH1 0x0 MSTORE PUSH1 0x20 PUSH1 0x0 KECCAK256 PUSH1 0x1F DUP5 ADD PUSH1 0x5 SHR DUP2 ADD PUSH1 0x20 DUP6 LT ISZERO PUSH2 0x1296 JUMPI POP DUP1 JUMPDEST PUSH1 0x1F DUP5 ADD PUSH1 0x5 SHR DUP3 ADD SWAP2 POP JUMPDEST DUP2 DUP2 LT ISZERO PUSH2 0x12B6 JUMPI PUSH1 0x0 DUP2 SSTORE PUSH1 0x1 ADD PUSH2 0x12A2 JUMP JUMPDEST POP POP JUMPDEST POP POP POP JUMP JUMPDEST DUP2 MLOAD PUSH8 0xFFFFFFFFFFFFFFFF DUP2 GT ISZERO PUSH2 0x12D8 JUMPI PUSH2 0x12D8 PUSH2 0xD4B JUMP JUMPDEST PUSH2 0x12EC DUP2 PUSH2 0x12E6 DUP5 SLOAD PUSH2 0x1235 JUMP JUMPDEST DUP5 PUSH2 0x126F JUMP JUMPDEST PUSH1 0x20 PUSH1 0x1F DUP3 GT PUSH1 0x1 DUP2 EQ PUSH2 0x1320 JUMPI PUSH1 0x0 DUP4 ISZERO PUSH2 0x1308 JUMPI POP DUP5 DUP3 ADD MLOAD JUMPDEST PUSH1 0x0 NOT PUSH1 0x3 DUP6 SWAP1 SHL SHR NOT AND PUSH1 0x1 DUP5 SWAP1 SHL OR DUP5 SSTORE PUSH2 0x12B6 JUMP JUMPDEST PUSH1 0x0 DUP5 DUP2 MSTORE PUSH1 0x20 DUP2 KECCAK256 PUSH1 0x1F NOT DUP6 AND SWAP2 JUMPDEST DUP3 DUP2 LT ISZERO PUSH2 0x1350 JUMPI DUP8 DUP6 ADD MLOAD DUP3 SSTORE PUSH1 0x20 SWAP5 DUP6 ADD SWAP5 PUSH1 0x1 SWAP1 SWAP3 ADD SWAP2 ADD PUSH2 0x1330 JUMP JUMPDEST POP DUP5 DUP3 LT ISZERO PUSH2 0x136E JUMPI DUP7 DUP5 ADD MLOAD PUSH1 0x0 NOT PUSH1 0x3 DUP8 SWAP1 SHL PUSH1 0xF8 AND SHR NOT AND DUP2 SSTORE JUMPDEST POP POP POP POP PUSH1 0x1 SWAP1 DUP2 SHL ADD SWAP1 SSTORE POP JUMP JUMPDEST PUSH1 0x0 PUSH1 0x1 DUP3 ADD PUSH2 0x139D JUMPI PUSH4 0x4E487B71 PUSH1 0xE0 SHL PUSH1 0x0 MSTORE PUSH1 0x11 PUSH1 0x4 MSTORE PUSH1 0x24 PUSH1 0x0 REVERT JUMPDEST POP PUSH1 0x1 ADD SWAP1 JUMP INVALID LOG2 PUSH5 0x6970667358 0x22 SLT KECCAK256 JUMPI 0xDA SWAP14 0xEA 0xE3 0xF DUP13 MSTORE 0xFC PUSH20 0xDB2C654FEAC33A81A107F8D67F4773BA11CAF06B SIGNEXTEND 0xB4 PUSH5 0x736F6C6343 STOP ADDMOD SHR STOP CALLER "},"methodIdentifiers":{"addCoffeeStage(uint256,string,string,string,string,string,string,string,string,string)":"02c93119","batchCount()":"06f13056","coffeeBatches(uint256,uint256)":"164f0908","createBatch()":"b91297c8","getBatchStages(uint256)":"5a80e31f"}}}}}