{
  "_format": "hh-sol-artifact-1",
  "contractName": "CoffeeTrack",
  "sourceName": "contracts/CoffeeTrack.sol",
  "abi": [
    {
      "anonymous": false,
      "inputs": [
        {
          "indexed": false,
          "internalType": "uint256",
          "name": "batchId",
          "type": "uint256"
        }
      ],
      "name": "BatchCreated",
      "type": "event"
    },
    {
      "inputs": [
        {
          "internalType": "uint256",
          "name": "_batchId",
          "type": "uint256"
        },
        {
          "internalType": "string",
          "name": "_stage",
          "type": "string"
        },
        {
          "internalType": "string",
          "name": "_name",
          "type": "string"
        },
        {
          "internalType": "string",
          "name": "_location",
          "type": "string"
        },
        {
          "internalType": "string",
          "name": "_date",
          "type": "string"
        },
        {
          "internalType": "string",
          "name": "_sustainability",
          "type": "string"
        },
        {
          "internalType": "string",
          "name": "_beanType",
          "type": "string"
        },
        {
          "internalType": "string",
          "name": "_process",
          "type": "string"
        },
        {
          "internalType": "string",
          "name": "_roasting",
          "type": "string"
        },
        {
          "internalType": "string",
          "name": "_details",
          "type": "string"
        }
      ],
      "name": "addCoffeeStage",
      "outputs": [],
      "stateMutability": "nonpayable",
      "type": "function"
    },
    {
      "inputs": [],
      "name": "batchCount",
      "outputs": [
        {
          "internalType": "uint256",
          "name": "",
          "type": "uint256"
        }
      ],
      "stateMutability": "view",
      "type": "function"
    },
    {
      "inputs": [
        {
          "internalType": "uint256",
          "name": "",
          "type": "uint256"
        },
        {
          "internalType": "uint256",
          "name": "",
          "type": "uint256"
        }
      ],
      "name": "coffeeBatches",
      "outputs": [
        {
          "internalType": "uint256",
          "name": "index",
          "type": "uint256"
        },
        {
          "internalType": "string",
          "name": "stage",
          "type": "string"
        },
        {
          "internalType": "string",
          "name": "name",
          "type": "string"
        },
        {
          "internalType": "string",
          "name": "location",
          "type": "string"
        },
        {
          "internalType": "string",
          "name": "date",
          "type": "string"
        },
        {
          "internalType": "string",
          "name": "sustainability",
          "type": "string"
        },
        {
          "internalType": "string",
          "name": "beanType",
          "type": "string"
        },
        {
          "internalType": "string",
          "name": "process",
          "type": "string"
        },
        {
          "internalType": "string",
          "name": "roasting",
          "type": "string"
        },
        {
          "internalType": "string",
          "name": "details",
          "type": "string"
        }
      ],
      "stateMutability": "view",
      "type": "function"
    },
    {
      "inputs": [],
      "name": "createBatch",
      "outputs": [
        {
          "internalType": "uint256",
          "name": "",
          "type": "uint256"
        }
      ],
      "stateMutability": "nonpayable",
      "type": "function"
    },
    {
      "inputs": [
        {
          "internalType": "uint256",
          "name": "_batchId",
          "type": "uint256"
        }
      ],
      "name": "getBatchStages",
      "outputs": [
        {
          "components": [
            {
              "internalType": "uint256",
              "name": "index",
              "type": "uint256"
            },
            {
              "internalType": "string",
              "name": "stage",
              "type": "string"
            },
            {
              "internalType": "string",
              "name": "name",
              "type": "string"
            },
            {
              "internalType": "string",
              "name": "location",
              "type": "string"
            },
            {
              "internalType": "string",
              "name": "date",
              "type": "string"
            },
            {
              "internalType": "string",
              "name": "sustainability",
              "type": "string"
            },
            {
              "internalType": "string",
              "name": "beanType",
              "type": "string"
            },
            {
              "internalType": "string",
              "name": "process",
              "type": "string"
            },
            {
              "internalType": "string",
              "name": "roasting",
              "type": "string"
            },
            {
              "internalType": "string",
              "name": "details",
              "type": "string"
            }
          ],
          "internalType": "struct CoffeeTrack.CoffeeStage[]",
          "name": "",
          "type": "tuple[]"
        }
      ],
      "stateMutability": "view",
      "type": "function"
    }
  ],
  "bytecode": "0x60806040526000600155348015601457600080fd5b506113da806100246000396000f3fe608060405234801561001057600080fd5b50600436106100575760003560e01c806302c931191461005c57806306f1305614610071578063164f09081461008d5780635a80e31f146100b6578063b91297c8146100d6575b600080fd5b61006f61006a366004610df0565b6100de565b005b61007a60015481565b6040519081526020015b60405180910390f35b6100a061009b366004610f96565b610224565b6040516100849a99989796959493929190610ffe565b6100c96100c43660046110ca565b61075d565b60405161008491906110e3565b61007a610cf3565b60008a81526020818152604080832080548251610140810184528181528085018f81529381018e9052606081018d9052608081018c905260a081018b905260c081018a905260e081018990526101008101889052610120810187905285855260018083018455928652939094208351600a8602909101908155915183929182019061016990826112be565b506040820151600282019061017e90826112be565b506060820151600382019061019390826112be565b50608082015160048201906101a890826112be565b5060a082015160058201906101bd90826112be565b5060c082015160068201906101d290826112be565b5060e082015160078201906101e790826112be565b5061010082015160088201906101fd90826112be565b50610120820151600982019061021390826112be565b505050505050505050505050505050565b6000602052816000526040600020818154811061024057600080fd5b90600052602060002090600a02016000915091505080600001549080600101805461026a90611235565b80601f016020809104026020016040519081016040528092919081815260200182805461029690611235565b80156102e35780601f106102b8576101008083540402835291602001916102e3565b820191906000526020600020905b8154815290600101906020018083116102c657829003601f168201915b5050505050908060020180546102f890611235565b80601f016020809104026020016040519081016040528092919081815260200182805461032490611235565b80156103715780601f1061034657610100808354040283529160200191610371565b820191906000526020600020905b81548152906001019060200180831161035457829003601f168201915b50505050509080600301805461038690611235565b80601f01602080910402602001604051908101604052809291908181526020018280546103b290611235565b80156103ff5780601f106103d4576101008083540402835291602001916103ff565b820191906000526020600020905b8154815290600101906020018083116103e257829003601f168201915b50505050509080600401805461041490611235565b80601f016020809104026020016040519081016040528092919081815260200182805461044090611235565b801561048d5780601f106104625761010080835404028352916020019161048d565b820191906000526020600020905b81548152906001019060200180831161047057829003601f168201915b5050505050908060050180546104a290611235565b80601f01602080910402602001604051908101604052809291908181526020018280546104ce90611235565b801561051b5780601f106104f05761010080835404028352916020019161051b565b820191906000526020600020905b8154815290600101906020018083116104fe57829003601f168201915b50505050509080600601805461053090611235565b80601f016020809104026020016040519081016040528092919081815260200182805461055c90611235565b80156105a95780601f1061057e576101008083540402835291602001916105a9565b820191906000526020600020905b81548152906001019060200180831161058c57829003601f168201915b5050505050908060070180546105be90611235565b80601f01602080910402602001604051908101604052809291908181526020018280546105ea90611235565b80156106375780601f1061060c57610100808354040283529160200191610637565b820191906000526020600020905b81548152906001019060200180831161061a57829003601f168201915b50505050509080600801805461064c90611235565b80601f016020809104026020016040519081016040528092919081815260200182805461067890611235565b80156106c55780601f1061069a576101008083540402835291602001916106c5565b820191906000526020600020905b8154815290600101906020018083116106a857829003601f168201915b5050505050908060090180546106da90611235565b80601f016020809104026020016040519081016040528092919081815260200182805461070690611235565b80156107535780601f1061072857610100808354040283529160200191610753565b820191906000526020600020905b81548152906001019060200180831161073657829003601f168201915b505050505090508a565b600081815260208181526040808320805482518185028101850190935280835260609492939192909184015b82821015610ce857838290600052602060002090600a020160405180610140016040529081600082015481526020016001820180546107c790611235565b80601f01602080910402602001604051908101604052809291908181526020018280546107f390611235565b80156108405780601f1061081557610100808354040283529160200191610840565b820191906000526020600020905b81548152906001019060200180831161082357829003601f168201915b5050505050815260200160028201805461085990611235565b80601f016020809104026020016040519081016040528092919081815260200182805461088590611235565b80156108d25780601f106108a7576101008083540402835291602001916108d2565b820191906000526020600020905b8154815290600101906020018083116108b557829003601f168201915b505050505081526020016003820180546108eb90611235565b80601f016020809104026020016040519081016040528092919081815260200182805461091790611235565b80156109645780601f1061093957610100808354040283529160200191610964565b820191906000526020600020905b81548152906001019060200180831161094757829003601f168201915b5050505050815260200160048201805461097d90611235565b80601f01602080910402602001604051908101604052809291908181526020018280546109a990611235565b80156109f65780601f106109cb576101008083540402835291602001916109f6565b820191906000526020600020905b8154815290600101906020018083116109d957829003601f168201915b50505050508152602001600582018054610a0f90611235565b80601f0160208091040260200160405190810160405280929190818152602001828054610a3b90611235565b8015610a885780601f10610a5d57610100808354040283529160200191610a88565b820191906000526020600020905b815481529060010190602001808311610a6b57829003601f168201915b50505050508152602001600682018054610aa190611235565b80601f0160208091040260200160405190810160405280929190818152602001828054610acd90611235565b8015610b1a5780601f10610aef57610100808354040283529160200191610b1a565b820191906000526020600020905b815481529060010190602001808311610afd57829003601f168201915b50505050508152602001600782018054610b3390611235565b80601f0160208091040260200160405190810160405280929190818152602001828054610b5f90611235565b8015610bac5780601f10610b8157610100808354040283529160200191610bac565b820191906000526020600020905b815481529060010190602001808311610b8f57829003601f168201915b50505050508152602001600882018054610bc590611235565b80601f0160208091040260200160405190810160405280929190818152602001828054610bf190611235565b8015610c3e5780601f10610c1357610100808354040283529160200191610c3e565b820191906000526020600020905b815481529060010190602001808311610c2157829003601f168201915b50505050508152602001600982018054610c5790611235565b80601f0160208091040260200160405190810160405280929190818152602001828054610c8390611235565b8015610cd05780601f10610ca557610100808354040283529160200191610cd0565b820191906000526020600020905b815481529060010190602001808311610cb357829003601f168201915b50505050508152505081526020019060010190610789565b505050509050919050565b6001805460009182610d048361137d565b91905055507f2354c6982830f23074cbadd3a8326546827ca5be87b6cfe41e906c66e75cd965600154604051610d3c91815260200190565b60405180910390a15060015490565b634e487b7160e01b600052604160045260246000fd5b600082601f830112610d7257600080fd5b813567ffffffffffffffff811115610d8c57610d8c610d4b565b604051601f8201601f19908116603f0116810167ffffffffffffffff81118282101715610dbb57610dbb610d4b565b604052818152838201602001851015610dd357600080fd5b816020850160208301376000918101602001919091529392505050565b6000806000806000806000806000806101408b8d031215610e1057600080fd5b8a35995060208b013567ffffffffffffffff811115610e2e57600080fd5b610e3a8d828e01610d61565b99505060408b013567ffffffffffffffff811115610e5757600080fd5b610e638d828e01610d61565b98505060608b013567ffffffffffffffff811115610e8057600080fd5b610e8c8d828e01610d61565b97505060808b013567ffffffffffffffff811115610ea957600080fd5b610eb58d828e01610d61565b96505060a08b013567ffffffffffffffff811115610ed257600080fd5b610ede8d828e01610d61565b95505060c08b013567ffffffffffffffff811115610efb57600080fd5b610f078d828e01610d61565b94505060e08b013567ffffffffffffffff811115610f2457600080fd5b610f308d828e01610d61565b9350506101008b013567ffffffffffffffff811115610f4e57600080fd5b610f5a8d828e01610d61565b9250506101208b013567ffffffffffffffff811115610f7857600080fd5b610f848d828e01610d61565b9150509295989b9194979a5092959850565b60008060408385031215610fa957600080fd5b50508035926020909101359150565b6000815180845260005b81811015610fde57602081850181015186830182015201610fc2565b506000602082860101526020601f19601f83011685010191505092915050565b8a81526101406020820152600061101961014083018c610fb8565b828103604084015261102b818c610fb8565b9050828103606084015261103f818b610fb8565b90508281036080840152611053818a610fb8565b905082810360a08401526110678189610fb8565b905082810360c084015261107b8188610fb8565b905082810360e084015261108f8187610fb8565b90508281036101008401526110a48186610fb8565b90508281036101208401526110b98185610fb8565b9d9c50505050505050505050505050565b6000602082840312156110dc57600080fd5b5035919050565b6000602082016020835280845180835260408501915060408160051b86010192506020860160005b8281101561122957603f198786030184528151805186526020810151610140602088015261113d610140880182610fb8565b9050604082015187820360408901526111568282610fb8565b915050606082015187820360608901526111708282610fb8565b9150506080820151878203608089015261118a8282610fb8565b91505060a082015187820360a08901526111a48282610fb8565b91505060c082015187820360c08901526111be8282610fb8565b91505060e082015187820360e08901526111d88282610fb8565b9150506101008201518782036101008901526111f48282610fb8565b91505061012082015191508681036101208801526112128183610fb8565b96505050602093840193919091019060010161110b565b50929695505050505050565b600181811c9082168061124957607f821691505b60208210810361126957634e487b7160e01b600052602260045260246000fd5b50919050565b601f8211156112b957806000526020600020601f840160051c810160208510156112965750805b601f840160051c820191505b818110156112b657600081556001016112a2565b50505b505050565b815167ffffffffffffffff8111156112d8576112d8610d4b565b6112ec816112e68454611235565b8461126f565b6020601f82116001811461132057600083156113085750848201515b600019600385901b1c1916600184901b1784556112b6565b600084815260208120601f198516915b828110156113505787850151825560209485019460019092019101611330565b508482101561136e5786840151600019600387901b60f8161c191681555b50505050600190811b01905550565b60006001820161139d57634e487b7160e01b600052601160045260246000fd5b506001019056fea264697066735822122057da9deae30f8c52fc73db2c654feac33a81a107f8d67f4773ba11caf06b0bb464736f6c634300081c0033",
  "linkReferences": {},
  "deployedLinkReferences": {}
}